{
  "contractName": "LendingPool",
  "abi": [
    {
      "inputs": [
        {
          "internalType": "address",
          "name": "from",
          "type": "address"
        },
        {
          "internalType": "uint256",
          "name": "amount",
          "type": "uint256"
        }
      ],
      "name": "withdraw",
      "outputs": [],
      "stateMutability": "nonpayable",
      "type": "function"
    },
    {
      "inputs": [],
      "name": "deposit",
      "outputs": [],
      "stateMutability": "nonpayable",
      "type": "function"
    },
    {
      "inputs": [],
      "name": "borrow",
      "outputs": [],
      "stateMutability": "nonpayable",
      "type": "function"
    },
    {
      "inputs": [],
      "name": "repayBorrow",
      "outputs": [],
      "stateMutability": "nonpayable",
      "type": "function"
    }
  ],
  "bytecode": "0x608060405234801561001057600080fd5b506101a4806100206000396000f3fe608060405234801561001057600080fd5b506004361061004c5760003560e01c80634e4d9fea14610051578063d0e30db01461005b578063e68d356914610065578063f3fef3a31461006f575b600080fd5b61005961008b565b005b61006361008d565b005b61006d61008f565b005b6100896004803603810190610084919061012e565b610091565b005b565b565b565b5050565b600080fd5b600073ffffffffffffffffffffffffffffffffffffffff82169050919050565b60006100c58261009a565b9050919050565b6100d5816100ba565b81146100e057600080fd5b50565b6000813590506100f2816100cc565b92915050565b6000819050919050565b61010b816100f8565b811461011657600080fd5b50565b60008135905061012881610102565b92915050565b6000806040838503121561014557610144610095565b5b6000610153858286016100e3565b925050602061016485828601610119565b915050925092905056fea2646970667358221220e447a1bab5c5f9c7b95db80cc6939fb145f54dc1887ae4ea63c7d1cb7b3c509064736f6c634300080f0033",
  "immutableReferences": {},
  "source": "// SPDX-License-Identifier: agpl-3.0\r\npragma solidity ^0.8.0;\r\n\r\ncontract LendingPool {\r\n\r\n    \r\n    mapping (address => uint) balances;\r\n    function withdraw(address from, uint amount) public {}\r\n    function deposit() public {}\r\n    function borrow() public {}\r\n    function repayBorrow() public {}\r\n}",
  "sourcePath": "C:\\Users\\godof\\Documents\\Solidity\\LEND\\contracts\\Lendingpool.sol",
  "compiler": {
    "name": "solc",
    "version": "0.8.15+commit.e14f2714.Emscripten.clang"
  },
  "schemaVersion": "3.4.8",
  "updatedAt": "2022-07-28T18:11:53.354Z",
  "devdoc": {
    "kind": "dev",
    "methods": {},
    "version": 1
  },
  "userdoc": {
    "kind": "user",
    "methods": {},
    "version": 1
  }
}