{
  "contractName": "LendToken",
  "abi": [
    {
      "inputs": [],
      "stateMutability": "nonpayable",
      "type": "constructor"
    },
    {
      "anonymous": false,
      "inputs": [
        {
          "indexed": true,
          "internalType": "address",
          "name": "owner",
          "type": "address"
        },
        {
          "indexed": true,
          "internalType": "address",
          "name": "spender",
          "type": "address"
        },
        {
          "indexed": false,
          "internalType": "uint256",
          "name": "value",
          "type": "uint256"
        }
      ],
      "name": "Approval",
      "type": "event"
    },
    {
      "anonymous": false,
      "inputs": [
        {
          "indexed": true,
          "internalType": "address",
          "name": "previousOwner",
          "type": "address"
        },
        {
          "indexed": true,
          "internalType": "address",
          "name": "newOwner",
          "type": "address"
        }
      ],
      "name": "OwnershipTransferred",
      "type": "event"
    },
    {
      "anonymous": false,
      "inputs": [
        {
          "indexed": true,
          "internalType": "address",
          "name": "from",
          "type": "address"
        },
        {
          "indexed": true,
          "internalType": "address",
          "name": "to",
          "type": "address"
        },
        {
          "indexed": false,
          "internalType": "uint256",
          "name": "value",
          "type": "uint256"
        }
      ],
      "name": "Transfer",
      "type": "event"
    },
    {
      "inputs": [
        {
          "internalType": "address",
          "name": "owner",
          "type": "address"
        },
        {
          "internalType": "address",
          "name": "spender",
          "type": "address"
        }
      ],
      "name": "allowance",
      "outputs": [
        {
          "internalType": "uint256",
          "name": "",
          "type": "uint256"
        }
      ],
      "stateMutability": "view",
      "type": "function",
      "constant": true
    },
    {
      "inputs": [
        {
          "internalType": "address",
          "name": "spender",
          "type": "address"
        },
        {
          "internalType": "uint256",
          "name": "amount",
          "type": "uint256"
        }
      ],
      "name": "approve",
      "outputs": [
        {
          "internalType": "bool",
          "name": "",
          "type": "bool"
        }
      ],
      "stateMutability": "nonpayable",
      "type": "function"
    },
    {
      "inputs": [
        {
          "internalType": "address",
          "name": "account",
          "type": "address"
        }
      ],
      "name": "balanceOf",
      "outputs": [
        {
          "internalType": "uint256",
          "name": "",
          "type": "uint256"
        }
      ],
      "stateMutability": "view",
      "type": "function",
      "constant": true
    },
    {
      "inputs": [],
      "name": "decimals",
      "outputs": [
        {
          "internalType": "uint8",
          "name": "",
          "type": "uint8"
        }
      ],
      "stateMutability": "view",
      "type": "function",
      "constant": true
    },
    {
      "inputs": [
        {
          "internalType": "address",
          "name": "spender",
          "type": "address"
        },
        {
          "internalType": "uint256",
          "name": "subtractedValue",
          "type": "uint256"
        }
      ],
      "name": "decreaseAllowance",
      "outputs": [
        {
          "internalType": "bool",
          "name": "",
          "type": "bool"
        }
      ],
      "stateMutability": "nonpayable",
      "type": "function"
    },
    {
      "inputs": [
        {
          "internalType": "address",
          "name": "spender",
          "type": "address"
        },
        {
          "internalType": "uint256",
          "name": "addedValue",
          "type": "uint256"
        }
      ],
      "name": "increaseAllowance",
      "outputs": [
        {
          "internalType": "bool",
          "name": "",
          "type": "bool"
        }
      ],
      "stateMutability": "nonpayable",
      "type": "function"
    },
    {
      "inputs": [],
      "name": "name",
      "outputs": [
        {
          "internalType": "string",
          "name": "",
          "type": "string"
        }
      ],
      "stateMutability": "view",
      "type": "function",
      "constant": true
    },
    {
      "inputs": [],
      "name": "owner",
      "outputs": [
        {
          "internalType": "address",
          "name": "",
          "type": "address"
        }
      ],
      "stateMutability": "view",
      "type": "function",
      "constant": true
    },
    {
      "inputs": [],
      "name": "renounceOwnership",
      "outputs": [],
      "stateMutability": "nonpayable",
      "type": "function"
    },
    {
      "inputs": [],
      "name": "symbol",
      "outputs": [
        {
          "internalType": "string",
          "name": "",
          "type": "string"
        }
      ],
      "stateMutability": "view",
      "type": "function",
      "constant": true
    },
    {
      "inputs": [],
      "name": "totalSupply",
      "outputs": [
        {
          "internalType": "uint256",
          "name": "",
          "type": "uint256"
        }
      ],
      "stateMutability": "view",
      "type": "function",
      "constant": true
    },
    {
      "inputs": [
        {
          "internalType": "address",
          "name": "to",
          "type": "address"
        },
        {
          "internalType": "uint256",
          "name": "amount",
          "type": "uint256"
        }
      ],
      "name": "transfer",
      "outputs": [
        {
          "internalType": "bool",
          "name": "",
          "type": "bool"
        }
      ],
      "stateMutability": "nonpayable",
      "type": "function"
    },
    {
      "inputs": [
        {
          "internalType": "address",
          "name": "from",
          "type": "address"
        },
        {
          "internalType": "address",
          "name": "to",
          "type": "address"
        },
        {
          "internalType": "uint256",
          "name": "amount",
          "type": "uint256"
        }
      ],
      "name": "transferFrom",
      "outputs": [
        {
          "internalType": "bool",
          "name": "",
          "type": "bool"
        }
      ],
      "stateMutability": "nonpayable",
      "type": "function"
    },
    {
      "inputs": [
        {
          "internalType": "address",
          "name": "newOwner",
          "type": "address"
        }
      ],
      "name": "transferOwnership",
      "outputs": [],
      "stateMutability": "nonpayable",
      "type": "function"
    },
    {
      "inputs": [
        {
          "internalType": "uint256",
          "name": "amount",
          "type": "uint256"
        },
        {
          "internalType": "address",
          "name": "sender",
          "type": "address"
        }
      ],
      "name": "claim",
      "outputs": [],
      "stateMutability": "nonpayable",
      "type": "function"
    }
  ],
  "bytecode": "0x60806040523480156200001157600080fd5b506040518060400160405280600481526020017f4c454e44000000000000000000000000000000000000000000000000000000008152506040518060400160405280600481526020017f4c454e440000000000000000000000000000000000000000000000000000000081525081600390816200008f9190620005a9565b508060049081620000a19190620005a9565b505050620000c4620000b8620000df60201b60201c565b620000e760201b60201c565b620000d933620186a0620001ad60201b60201c565b620007cd565b600033905090565b6000600560009054906101000a900473ffffffffffffffffffffffffffffffffffffffff16905081600560006101000a81548173ffffffffffffffffffffffffffffffffffffffff021916908373ffffffffffffffffffffffffffffffffffffffff1602179055508173ffffffffffffffffffffffffffffffffffffffff168173ffffffffffffffffffffffffffffffffffffffff167f8be0079c531659141344cd1fd0a4f28419497f9722a3daafe3b4186f6b6457e060405160405180910390a35050565b600073ffffffffffffffffffffffffffffffffffffffff168273ffffffffffffffffffffffffffffffffffffffff16036200021f576040517f08c379a00000000000000000000000000000000000000000000000000000000081526004016200021690620006f1565b60405180910390fd5b62000233600083836200032560201b60201c565b806002600082825462000247919062000742565b92505081905550806000808473ffffffffffffffffffffffffffffffffffffffff1673ffffffffffffffffffffffffffffffffffffffff16815260200190815260200160002060008282546200029e919062000742565b925050819055508173ffffffffffffffffffffffffffffffffffffffff16600073ffffffffffffffffffffffffffffffffffffffff167fddf252ad1be2c89b69c2b068fc378daa952ba7f163c4a11628f55a4df523b3ef83604051620003059190620007b0565b60405180910390a362000321600083836200032a60201b60201c565b5050565b505050565b505050565b600081519050919050565b7f4e487b7100000000000000000000000000000000000000000000000000000000600052604160045260246000fd5b7f4e487b7100000000000000000000000000000000000000000000000000000000600052602260045260246000fd5b60006002820490506001821680620003b157607f821691505b602082108103620003c757620003c662000369565b5b50919050565b60008190508160005260206000209050919050565b60006020601f8301049050919050565b600082821b905092915050565b600060088302620004317fffffffffffffffffffffffffffffffffffffffffffffffffffffffffffffffff82620003f2565b6200043d8683620003f2565b95508019841693508086168417925050509392505050565b6000819050919050565b6000819050919050565b60006200048a620004846200047e8462000455565b6200045f565b62000455565b9050919050565b6000819050919050565b620004a68362000469565b620004be620004b58262000491565b848454620003ff565b825550505050565b600090565b620004d5620004c6565b620004e28184846200049b565b505050565b5b818110156200050a57620004fe600082620004cb565b600181019050620004e8565b5050565b601f82111562000559576200052381620003cd565b6200052e84620003e2565b810160208510156200053e578190505b620005566200054d85620003e2565b830182620004e7565b50505b505050565b600082821c905092915050565b60006200057e600019846008026200055e565b1980831691505092915050565b60006200059983836200056b565b9150826002028217905092915050565b620005b4826200032f565b67ffffffffffffffff811115620005d057620005cf6200033a565b5b620005dc825462000398565b620005e98282856200050e565b600060209050601f8311600181146200062157600084156200060c578287015190505b6200061885826200058b565b86555062000688565b601f1984166200063186620003cd565b60005b828110156200065b5784890151825560018201915060208501945060208101905062000634565b868310156200067b578489015162000677601f8916826200056b565b8355505b6001600288020188555050505b505050505050565b600082825260208201905092915050565b7f45524332303a206d696e7420746f20746865207a65726f206164647265737300600082015250565b6000620006d9601f8362000690565b9150620006e682620006a1565b602082019050919050565b600060208201905081810360008301526200070c81620006ca565b9050919050565b7f4e487b7100000000000000000000000000000000000000000000000000000000600052601160045260246000fd5b60006200074f8262000455565b91506200075c8362000455565b9250827fffffffffffffffffffffffffffffffffffffffffffffffffffffffffffffffff0382111562000794576200079362000713565b5b828201905092915050565b620007aa8162000455565b82525050565b6000602082019050620007c760008301846200079f565b92915050565b61185580620007dd6000396000f3fe608060405234801561001057600080fd5b50600436106100f55760003560e01c8063715018a611610097578063a9059cbb11610066578063a9059cbb1461028a578063dd62ed3e146102ba578063ddd5e1b2146102ea578063f2fde38b14610306576100f5565b8063715018a6146102145780638da5cb5b1461021e57806395d89b411461023c578063a457c2d71461025a576100f5565b806323b872dd116100d357806323b872dd14610166578063313ce5671461019657806339509351146101b457806370a08231146101e4576100f5565b806306fdde03146100fa578063095ea7b31461011857806318160ddd14610148575b600080fd5b610102610322565b60405161010f9190610f3c565b60405180910390f35b610132600480360381019061012d9190610ff7565b6103b4565b60405161013f9190611052565b60405180910390f35b6101506103d7565b60405161015d919061107c565b60405180910390f35b610180600480360381019061017b9190611097565b6103e1565b60405161018d9190611052565b60405180910390f35b61019e610410565b6040516101ab9190611106565b60405180910390f35b6101ce60048036038101906101c99190610ff7565b610419565b6040516101db9190611052565b60405180910390f35b6101fe60048036038101906101f99190611121565b610450565b60405161020b919061107c565b60405180910390f35b61021c610498565b005b6102266104ac565b604051610233919061115d565b60405180910390f35b6102446104d6565b6040516102519190610f3c565b60405180910390f35b610274600480360381019061026f9190610ff7565b610568565b6040516102819190611052565b60405180910390f35b6102a4600480360381019061029f9190610ff7565b6105df565b6040516102b19190611052565b60405180910390f35b6102d460048036038101906102cf9190611178565b610602565b6040516102e1919061107c565b60405180910390f35b61030460048036038101906102ff91906111b8565b610689565b005b610320600480360381019061031b9190611121565b610697565b005b60606003805461033190611227565b80601f016020809104026020016040519081016040528092919081815260200182805461035d90611227565b80156103aa5780601f1061037f576101008083540402835291602001916103aa565b820191906000526020600020905b81548152906001019060200180831161038d57829003601f168201915b5050505050905090565b6000806103bf61071a565b90506103cc818585610722565b600191505092915050565b6000600254905090565b6000806103ec61071a565b90506103f98582856108eb565b610404858585610977565b60019150509392505050565b60006012905090565b60008061042461071a565b90506104458185856104368589610602565b6104409190611287565b610722565b600191505092915050565b60008060008373ffffffffffffffffffffffffffffffffffffffff1673ffffffffffffffffffffffffffffffffffffffff168152602001908152602001600020549050919050565b6104a0610bf6565b6104aa6000610c74565b565b6000600560009054906101000a900473ffffffffffffffffffffffffffffffffffffffff16905090565b6060600480546104e590611227565b80601f016020809104026020016040519081016040528092919081815260200182805461051190611227565b801561055e5780601f106105335761010080835404028352916020019161055e565b820191906000526020600020905b81548152906001019060200180831161054157829003601f168201915b5050505050905090565b60008061057361071a565b905060006105818286610602565b9050838110156105c6576040517f08c379a00000000000000000000000000000000000000000000000000000000081526004016105bd9061134f565b60405180910390fd5b6105d38286868403610722565b60019250505092915050565b6000806105ea61071a565b90506105f7818585610977565b600191505092915050565b6000600160008473ffffffffffffffffffffffffffffffffffffffff1673ffffffffffffffffffffffffffffffffffffffff16815260200190815260200160002060008373ffffffffffffffffffffffffffffffffffffffff1673ffffffffffffffffffffffffffffffffffffffff16815260200190815260200160002054905092915050565b6106938183610d3a565b5050565b61069f610bf6565b600073ffffffffffffffffffffffffffffffffffffffff168173ffffffffffffffffffffffffffffffffffffffff160361070e576040517f08c379a0000000000000000000000000000000000000000000000000000000008152600401610705906113e1565b60405180910390fd5b61071781610c74565b50565b600033905090565b600073ffffffffffffffffffffffffffffffffffffffff168373ffffffffffffffffffffffffffffffffffffffff1603610791576040517f08c379a000000000000000000000000000000000000000000000000000000000815260040161078890611473565b60405180910390fd5b600073ffffffffffffffffffffffffffffffffffffffff168273ffffffffffffffffffffffffffffffffffffffff1603610800576040517f08c379a00000000000000000000000000000000000000000000000000000000081526004016107f790611505565b60405180910390fd5b80600160008573ffffffffffffffffffffffffffffffffffffffff1673ffffffffffffffffffffffffffffffffffffffff16815260200190815260200160002060008473ffffffffffffffffffffffffffffffffffffffff1673ffffffffffffffffffffffffffffffffffffffff168152602001908152602001600020819055508173ffffffffffffffffffffffffffffffffffffffff168373ffffffffffffffffffffffffffffffffffffffff167f8c5be1e5ebec7d5bd14f71427d1e84f3dd0314c0f7b2291e5b200ac8c7c3b925836040516108de919061107c565b60405180910390a3505050565b60006108f78484610602565b90507fffffffffffffffffffffffffffffffffffffffffffffffffffffffffffffffff81146109715781811015610963576040517f08c379a000000000000000000000000000000000000000000000000000000000815260040161095a90611571565b60405180910390fd5b6109708484848403610722565b5b50505050565b600073ffffffffffffffffffffffffffffffffffffffff168373ffffffffffffffffffffffffffffffffffffffff16036109e6576040517f08c379a00000000000000000000000000000000000000000000000000000000081526004016109dd90611603565b60405180910390fd5b600073ffffffffffffffffffffffffffffffffffffffff168273ffffffffffffffffffffffffffffffffffffffff1603610a55576040517f08c379a0000000000000000000000000000000000000000000000000000000008152600401610a4c90611695565b60405180910390fd5b610a60838383610e99565b60008060008573ffffffffffffffffffffffffffffffffffffffff1673ffffffffffffffffffffffffffffffffffffffff16815260200190815260200160002054905081811015610ae6576040517f08c379a0000000000000000000000000000000000000000000000000000000008152600401610add90611727565b60405180910390fd5b8181036000808673ffffffffffffffffffffffffffffffffffffffff1673ffffffffffffffffffffffffffffffffffffffff16815260200190815260200160002081905550816000808573ffffffffffffffffffffffffffffffffffffffff1673ffffffffffffffffffffffffffffffffffffffff1681526020019081526020016000206000828254610b799190611287565b925050819055508273ffffffffffffffffffffffffffffffffffffffff168473ffffffffffffffffffffffffffffffffffffffff167fddf252ad1be2c89b69c2b068fc378daa952ba7f163c4a11628f55a4df523b3ef84604051610bdd919061107c565b60405180910390a3610bf0848484610e9e565b50505050565b610bfe61071a565b73ffffffffffffffffffffffffffffffffffffffff16610c1c6104ac565b73ffffffffffffffffffffffffffffffffffffffff1614610c72576040517f08c379a0000000000000000000000000000000000000000000000000000000008152600401610c6990611793565b60405180910390fd5b565b6000600560009054906101000a900473ffffffffffffffffffffffffffffffffffffffff16905081600560006101000a81548173ffffffffffffffffffffffffffffffffffffffff021916908373ffffffffffffffffffffffffffffffffffffffff1602179055508173ffffffffffffffffffffffffffffffffffffffff168173ffffffffffffffffffffffffffffffffffffffff167f8be0079c531659141344cd1fd0a4f28419497f9722a3daafe3b4186f6b6457e060405160405180910390a35050565b600073ffffffffffffffffffffffffffffffffffffffff168273ffffffffffffffffffffffffffffffffffffffff1603610da9576040517f08c379a0000000000000000000000000000000000000000000000000000000008152600401610da0906117ff565b60405180910390fd5b610db560008383610e99565b8060026000828254610dc79190611287565b92505081905550806000808473ffffffffffffffffffffffffffffffffffffffff1673ffffffffffffffffffffffffffffffffffffffff1681526020019081526020016000206000828254610e1c9190611287565b925050819055508173ffffffffffffffffffffffffffffffffffffffff16600073ffffffffffffffffffffffffffffffffffffffff167fddf252ad1be2c89b69c2b068fc378daa952ba7f163c4a11628f55a4df523b3ef83604051610e81919061107c565b60405180910390a3610e9560008383610e9e565b5050565b505050565b505050565b600081519050919050565b600082825260208201905092915050565b60005b83811015610edd578082015181840152602081019050610ec2565b83811115610eec576000848401525b50505050565b6000601f19601f8301169050919050565b6000610f0e82610ea3565b610f188185610eae565b9350610f28818560208601610ebf565b610f3181610ef2565b840191505092915050565b60006020820190508181036000830152610f568184610f03565b905092915050565b600080fd5b600073ffffffffffffffffffffffffffffffffffffffff82169050919050565b6000610f8e82610f63565b9050919050565b610f9e81610f83565b8114610fa957600080fd5b50565b600081359050610fbb81610f95565b92915050565b6000819050919050565b610fd481610fc1565b8114610fdf57600080fd5b50565b600081359050610ff181610fcb565b92915050565b6000806040838503121561100e5761100d610f5e565b5b600061101c85828601610fac565b925050602061102d85828601610fe2565b9150509250929050565b60008115159050919050565b61104c81611037565b82525050565b60006020820190506110676000830184611043565b92915050565b61107681610fc1565b82525050565b6000602082019050611091600083018461106d565b92915050565b6000806000606084860312156110b0576110af610f5e565b5b60006110be86828701610fac565b93505060206110cf86828701610fac565b92505060406110e086828701610fe2565b9150509250925092565b600060ff82169050919050565b611100816110ea565b82525050565b600060208201905061111b60008301846110f7565b92915050565b60006020828403121561113757611136610f5e565b5b600061114584828501610fac565b91505092915050565b61115781610f83565b82525050565b6000602082019050611172600083018461114e565b92915050565b6000806040838503121561118f5761118e610f5e565b5b600061119d85828601610fac565b92505060206111ae85828601610fac565b9150509250929050565b600080604083850312156111cf576111ce610f5e565b5b60006111dd85828601610fe2565b92505060206111ee85828601610fac565b9150509250929050565b7f4e487b7100000000000000000000000000000000000000000000000000000000600052602260045260246000fd5b6000600282049050600182168061123f57607f821691505b602082108103611252576112516111f8565b5b50919050565b7f4e487b7100000000000000000000000000000000000000000000000000000000600052601160045260246000fd5b600061129282610fc1565b915061129d83610fc1565b9250827fffffffffffffffffffffffffffffffffffffffffffffffffffffffffffffffff038211156112d2576112d1611258565b5b828201905092915050565b7f45524332303a2064656372656173656420616c6c6f77616e63652062656c6f7760008201527f207a65726f000000000000000000000000000000000000000000000000000000602082015250565b6000611339602583610eae565b9150611344826112dd565b604082019050919050565b600060208201905081810360008301526113688161132c565b9050919050565b7f4f776e61626c653a206e6577206f776e657220697320746865207a65726f206160008201527f6464726573730000000000000000000000000000000000000000000000000000602082015250565b60006113cb602683610eae565b91506113d68261136f565b604082019050919050565b600060208201905081810360008301526113fa816113be565b9050919050565b7f45524332303a20617070726f76652066726f6d20746865207a65726f2061646460008201527f7265737300000000000000000000000000000000000000000000000000000000602082015250565b600061145d602483610eae565b915061146882611401565b604082019050919050565b6000602082019050818103600083015261148c81611450565b9050919050565b7f45524332303a20617070726f766520746f20746865207a65726f20616464726560008201527f7373000000000000000000000000000000000000000000000000000000000000602082015250565b60006114ef602283610eae565b91506114fa82611493565b604082019050919050565b6000602082019050818103600083015261151e816114e2565b9050919050565b7f45524332303a20696e73756666696369656e7420616c6c6f77616e6365000000600082015250565b600061155b601d83610eae565b915061156682611525565b602082019050919050565b6000602082019050818103600083015261158a8161154e565b9050919050565b7f45524332303a207472616e736665722066726f6d20746865207a65726f20616460008201527f6472657373000000000000000000000000000000000000000000000000000000602082015250565b60006115ed602583610eae565b91506115f882611591565b604082019050919050565b6000602082019050818103600083015261161c816115e0565b9050919050565b7f45524332303a207472616e7366657220746f20746865207a65726f206164647260008201527f6573730000000000000000000000000000000000000000000000000000000000602082015250565b600061167f602383610eae565b915061168a82611623565b604082019050919050565b600060208201905081810360008301526116ae81611672565b9050919050565b7f45524332303a207472616e7366657220616d6f756e742065786365656473206260008201527f616c616e63650000000000000000000000000000000000000000000000000000602082015250565b6000611711602683610eae565b915061171c826116b5565b604082019050919050565b6000602082019050818103600083015261174081611704565b9050919050565b7f4f776e61626c653a2063616c6c6572206973206e6f7420746865206f776e6572600082015250565b600061177d602083610eae565b915061178882611747565b602082019050919050565b600060208201905081810360008301526117ac81611770565b9050919050565b7f45524332303a206d696e7420746f20746865207a65726f206164647265737300600082015250565b60006117e9601f83610eae565b91506117f4826117b3565b602082019050919050565b60006020820190508181036000830152611818816117dc565b905091905056fea26469706673582212209624dde9ec6f3010b0285b48cef70b5982c0e6cf7bf4516ea015746a226ec47f64736f6c634300080f0033",
  "immutableReferences": {},
  "source": "// SPDX-License-Identifier: agpl-3.0\r\npragma solidity ^0.8.3;\r\nimport \"@openzeppelin/contracts/token/ERC20/ERC20.sol\";\r\nimport \"@openzeppelin/contracts/access/Ownable.sol\";\r\nimport \"./Lendingpool.sol\";\r\n\r\ncontract LendToken is ERC20,Ownable {\r\n    constructor(\r\n    ) ERC20(\"LEND\", \"LEND\") {\r\n        _mint(msg.sender, 100000);\r\n    }\r\n    \r\n    \r\n    function claim(uint amount, address sender) external {\r\n        _mint(sender, amount);\r\n    }\r\n}",
  "sourcePath": "C:\\Users\\godof\\Documents\\Solidity\\LEND\\contracts\\LendToken.sol",
  "compiler": {
    "name": "solc",
    "version": "0.8.15+commit.e14f2714.Emscripten.clang"
  },
  "schemaVersion": "3.4.8",
  "updatedAt": "2022-08-02T00:00:47.217Z",
  "networkType": "ethereum",
  "devdoc": {
    "kind": "dev",
    "methods": {
      "allowance(address,address)": {
        "details": "See {IERC20-allowance}."
      },
      "approve(address,uint256)": {
        "details": "See {IERC20-approve}. NOTE: If `amount` is the maximum `uint256`, the allowance is not updated on `transferFrom`. This is semantically equivalent to an infinite approval. Requirements: - `spender` cannot be the zero address."
      },
      "balanceOf(address)": {
        "details": "See {IERC20-balanceOf}."
      },
      "decimals()": {
        "details": "Returns the number of decimals used to get its user representation. For example, if `decimals` equals `2`, a balance of `505` tokens should be displayed to a user as `5.05` (`505 / 10 ** 2`). Tokens usually opt for a value of 18, imitating the relationship between Ether and Wei. This is the value {ERC20} uses, unless this function is overridden; NOTE: This information is only used for _display_ purposes: it in no way affects any of the arithmetic of the contract, including {IERC20-balanceOf} and {IERC20-transfer}."
      },
      "decreaseAllowance(address,uint256)": {
        "details": "Atomically decreases the allowance granted to `spender` by the caller. This is an alternative to {approve} that can be used as a mitigation for problems described in {IERC20-approve}. Emits an {Approval} event indicating the updated allowance. Requirements: - `spender` cannot be the zero address. - `spender` must have allowance for the caller of at least `subtractedValue`."
      },
      "increaseAllowance(address,uint256)": {
        "details": "Atomically increases the allowance granted to `spender` by the caller. This is an alternative to {approve} that can be used as a mitigation for problems described in {IERC20-approve}. Emits an {Approval} event indicating the updated allowance. Requirements: - `spender` cannot be the zero address."
      },
      "name()": {
        "details": "Returns the name of the token."
      },
      "owner()": {
        "details": "Returns the address of the current owner."
      },
      "renounceOwnership()": {
        "details": "Leaves the contract without owner. It will not be possible to call `onlyOwner` functions anymore. Can only be called by the current owner. NOTE: Renouncing ownership will leave the contract without an owner, thereby removing any functionality that is only available to the owner."
      },
      "symbol()": {
        "details": "Returns the symbol of the token, usually a shorter version of the name."
      },
      "totalSupply()": {
        "details": "See {IERC20-totalSupply}."
      },
      "transfer(address,uint256)": {
        "details": "See {IERC20-transfer}. Requirements: - `to` cannot be the zero address. - the caller must have a balance of at least `amount`."
      },
      "transferFrom(address,address,uint256)": {
        "details": "See {IERC20-transferFrom}. Emits an {Approval} event indicating the updated allowance. This is not required by the EIP. See the note at the beginning of {ERC20}. NOTE: Does not update the allowance if the current allowance is the maximum `uint256`. Requirements: - `from` and `to` cannot be the zero address. - `from` must have a balance of at least `amount`. - the caller must have allowance for ``from``'s tokens of at least `amount`."
      },
      "transferOwnership(address)": {
        "details": "Transfers ownership of the contract to a new account (`newOwner`). Can only be called by the current owner."
      }
    },
    "version": 1
  },
  "userdoc": {
    "kind": "user",
    "methods": {},
    "version": 1
  }
}