{
  "contractName": "LendingPool",
  "abi": [
    {
      "inputs": [],
      "stateMutability": "nonpayable",
      "type": "constructor"
    },
    {
      "inputs": [],
      "name": "lETH",
      "outputs": [
        {
          "internalType": "contract lEth",
          "name": "",
          "type": "address"
        }
      ],
      "stateMutability": "view",
      "type": "function",
      "constant": true
    },
    {
      "inputs": [
        {
          "internalType": "uint256",
          "name": "_amount",
          "type": "uint256"
        },
        {
          "internalType": "address",
          "name": "LendETH",
          "type": "address"
        }
      ],
      "name": "deposit",
      "outputs": [],
      "stateMutability": "payable",
      "type": "function",
      "payable": true
    },
    {
      "inputs": [
        {
          "internalType": "uint256",
          "name": "_amount",
          "type": "uint256"
        },
        {
          "internalType": "address",
          "name": "LendETH",
          "type": "address"
        }
      ],
      "name": "withdraw",
      "outputs": [],
      "stateMutability": "payable",
      "type": "function",
      "payable": true
    },
    {
      "inputs": [
        {
          "internalType": "uint256",
          "name": "_amount",
          "type": "uint256"
        }
      ],
      "name": "borrow",
      "outputs": [],
      "stateMutability": "payable",
      "type": "function",
      "payable": true
    },
    {
      "inputs": [
        {
          "internalType": "uint256",
          "name": "_amount",
          "type": "uint256"
        }
      ],
      "name": "repayBorrow",
      "outputs": [],
      "stateMutability": "payable",
      "type": "function",
      "payable": true
    },
    {
      "inputs": [
        {
          "internalType": "address",
          "name": "LendAddress",
          "type": "address"
        }
      ],
      "name": "claimReward",
      "outputs": [],
      "stateMutability": "nonpayable",
      "type": "function"
    }
  ],
  "bytecode": "0x608060405233600160006101000a81548173ffffffffffffffffffffffffffffffffffffffff021916908373ffffffffffffffffffffffffffffffffffffffff16021790555073c778417e063141139fce010982780140aa0cd5ab600760006101000a81548173ffffffffffffffffffffffffffffffffffffffff021916908373ffffffffffffffffffffffffffffffffffffffff1602179055503480156100a657600080fd5b50426000819055506111b1806100bd6000396000f3fe6080604052600436106100545760003560e01c8062f714ce146100595780630e752702146100755780636e553f6514610091578063a3c9a47b146100ad578063c5ebeaec146100d8578063d279c191146100f4575b600080fd5b610073600480360381019061006e9190610d8b565b61011d565b005b61008f600480360381019061008a9190610dcb565b610473565b005b6100ab60048036038101906100a69190610d8b565b610607565b005b3480156100b957600080fd5b506100c261080d565b6040516100cf9190610e57565b60405180910390f35b6100f260048036038101906100ed9190610dcb565b610833565b005b34801561010057600080fd5b5061011b60048036038101906101169190610e72565b610a34565b005b8073ffffffffffffffffffffffffffffffffffffffff166370a08231336040518263ffffffff1660e01b81526004016101569190610eae565b602060405180830381865afa158015610173573d6000803e3d6000fd5b505050506040513d601f19601f820116820180604052508101906101979190610ede565b600260003373ffffffffffffffffffffffffffffffffffffffff1673ffffffffffffffffffffffffffffffffffffffff1681526020019081526020016000208190555081600260003373ffffffffffffffffffffffffffffffffffffffff1673ffffffffffffffffffffffffffffffffffffffff16815260200190815260200160002054101561022657600080fd5b81600260003373ffffffffffffffffffffffffffffffffffffffff1673ffffffffffffffffffffffffffffffffffffffff16815260200190815260200160002060008282546102759190610f3a565b925050819055506000600260003373ffffffffffffffffffffffffffffffffffffffff1673ffffffffffffffffffffffffffffffffffffffff1681526020019081526020016000205403610361576000600460003373ffffffffffffffffffffffffffffffffffffffff1673ffffffffffffffffffffffffffffffffffffffff16815260200190815260200160002060006101000a81548160ff0219169083151502179055506000600560003373ffffffffffffffffffffffffffffffffffffffff1673ffffffffffffffffffffffffffffffffffffffff168152602001908152602001600020819055505b600760009054906101000a900473ffffffffffffffffffffffffffffffffffffffff1673ffffffffffffffffffffffffffffffffffffffff1663a9059cbb33846040518363ffffffff1660e01b81526004016103be929190610f7d565b6020604051808303816000875af11580156103dd573d6000803e3d6000fd5b505050506040513d601f19601f820116820180604052508101906104019190610fde565b508073ffffffffffffffffffffffffffffffffffffffff16631e9a695033846040518363ffffffff1660e01b815260040161043d929190610f7d565b600060405180830381600087803b15801561045757600080fd5b505af115801561046b573d6000803e3d6000fd5b505050505050565b80600360003373ffffffffffffffffffffffffffffffffffffffff1673ffffffffffffffffffffffffffffffffffffffff1681526020019081526020016000205410156104bf57600080fd5b6000600360003373ffffffffffffffffffffffffffffffffffffffff1673ffffffffffffffffffffffffffffffffffffffff168152602001908152602001600020541161050b57600080fd5b80600360003373ffffffffffffffffffffffffffffffffffffffff1673ffffffffffffffffffffffffffffffffffffffff168152602001908152602001600020600082825461055a9190610f3a565b92505081905550600760009054906101000a900473ffffffffffffffffffffffffffffffffffffffff1673ffffffffffffffffffffffffffffffffffffffff166323b872dd3330846040518463ffffffff1660e01b81526004016105c09392919061100b565b6020604051808303816000875af11580156105df573d6000803e3d6000fd5b505050506040513d601f19601f820116820180604052508101906106039190610fde565b5050565b81600260003373ffffffffffffffffffffffffffffffffffffffff1673ffffffffffffffffffffffffffffffffffffffff16815260200190815260200160002060008282546106569190611042565b925050819055506001600460003373ffffffffffffffffffffffffffffffffffffffff1673ffffffffffffffffffffffffffffffffffffffff16815260200190815260200160002060006101000a81548160ff02191690831515021790555042600560003373ffffffffffffffffffffffffffffffffffffffff1673ffffffffffffffffffffffffffffffffffffffff168152602001908152602001600020819055508073ffffffffffffffffffffffffffffffffffffffff166394bf804d83336040518363ffffffff1660e01b8152600401610734929190611098565b600060405180830381600087803b15801561074e57600080fd5b505af1158015610762573d6000803e3d6000fd5b50505050600760009054906101000a900473ffffffffffffffffffffffffffffffffffffffff1673ffffffffffffffffffffffffffffffffffffffff166323b872dd3330856040518463ffffffff1660e01b81526004016107c59392919061100b565b6020604051808303816000875af11580156107e4573d6000803e3d6000fd5b505050506040513d601f19601f820116820180604052508101906108089190610fde565b505050565b600660009054906101000a900473ffffffffffffffffffffffffffffffffffffffff1681565b60646046600260003373ffffffffffffffffffffffffffffffffffffffff1673ffffffffffffffffffffffffffffffffffffffff1681526020019081526020016000205461088191906110c1565b61088b919061114a565b81111561089757600080fd5b60646046600260003373ffffffffffffffffffffffffffffffffffffffff1673ffffffffffffffffffffffffffffffffffffffff168152602001908152602001600020546108e591906110c1565b6108ef919061114a565b600360003373ffffffffffffffffffffffffffffffffffffffff1673ffffffffffffffffffffffffffffffffffffffff16815260200190815260200160002054111561093a57600080fd5b80600360003373ffffffffffffffffffffffffffffffffffffffff1673ffffffffffffffffffffffffffffffffffffffff16815260200190815260200160002060008282546109899190611042565b92505081905550600760009054906101000a900473ffffffffffffffffffffffffffffffffffffffff1673ffffffffffffffffffffffffffffffffffffffff1663a9059cbb33836040518363ffffffff1660e01b81526004016109ed929190610f7d565b6020604051808303816000875af1158015610a0c573d6000803e3d6000fd5b505050506040513d601f19601f82011682018060405250810190610a309190610fde565b5050565b6000600260003373ffffffffffffffffffffffffffffffffffffffff1673ffffffffffffffffffffffffffffffffffffffff1681526020019081526020016000205411610a8057600080fd5b6000600560003373ffffffffffffffffffffffffffffffffffffffff1673ffffffffffffffffffffffffffffffffffffffff1681526020019081526020016000205411610acc57600080fd5b600042600560003373ffffffffffffffffffffffffffffffffffffffff1673ffffffffffffffffffffffffffffffffffffffff16815260200190815260200160002054610b199190610f3a565b9050633b9aca0081610b2b91906110c1565b9050600a600260003373ffffffffffffffffffffffffffffffffffffffff1673ffffffffffffffffffffffffffffffffffffffff16815260200190815260200160002054610b7991906110c1565b81610b849190611042565b905060646032600260003373ffffffffffffffffffffffffffffffffffffffff1673ffffffffffffffffffffffffffffffffffffffff16815260200190815260200160002054610bd491906110c1565b610bde919061114a565b600360003373ffffffffffffffffffffffffffffffffffffffff1673ffffffffffffffffffffffffffffffffffffffff1681526020019081526020016000205410610c3f576064608282610c3291906110c1565b610c3c919061114a565b90505b6224ea00600054610c509190611042565b4210610c8157600281610c63919061114a565b90506224ea00600080828254610c799190611042565b925050819055505b8173ffffffffffffffffffffffffffffffffffffffff1663ddd5e1b282336040518363ffffffff1660e01b8152600401610cbc929190611098565b600060405180830381600087803b158015610cd657600080fd5b505af1158015610cea573d6000803e3d6000fd5b505050505050565b600080fd5b6000819050919050565b610d0a81610cf7565b8114610d1557600080fd5b50565b600081359050610d2781610d01565b92915050565b600073ffffffffffffffffffffffffffffffffffffffff82169050919050565b6000610d5882610d2d565b9050919050565b610d6881610d4d565b8114610d7357600080fd5b50565b600081359050610d8581610d5f565b92915050565b60008060408385031215610da257610da1610cf2565b5b6000610db085828601610d18565b9250506020610dc185828601610d76565b9150509250929050565b600060208284031215610de157610de0610cf2565b5b6000610def84828501610d18565b91505092915050565b6000819050919050565b6000610e1d610e18610e1384610d2d565b610df8565b610d2d565b9050919050565b6000610e2f82610e02565b9050919050565b6000610e4182610e24565b9050919050565b610e5181610e36565b82525050565b6000602082019050610e6c6000830184610e48565b92915050565b600060208284031215610e8857610e87610cf2565b5b6000610e9684828501610d76565b91505092915050565b610ea881610d4d565b82525050565b6000602082019050610ec36000830184610e9f565b92915050565b600081519050610ed881610d01565b92915050565b600060208284031215610ef457610ef3610cf2565b5b6000610f0284828501610ec9565b91505092915050565b7f4e487b7100000000000000000000000000000000000000000000000000000000600052601160045260246000fd5b6000610f4582610cf7565b9150610f5083610cf7565b925082821015610f6357610f62610f0b565b5b828203905092915050565b610f7781610cf7565b82525050565b6000604082019050610f926000830185610e9f565b610f9f6020830184610f6e565b9392505050565b60008115159050919050565b610fbb81610fa6565b8114610fc657600080fd5b50565b600081519050610fd881610fb2565b92915050565b600060208284031215610ff457610ff3610cf2565b5b600061100284828501610fc9565b91505092915050565b60006060820190506110206000830186610e9f565b61102d6020830185610e9f565b61103a6040830184610f6e565b949350505050565b600061104d82610cf7565b915061105883610cf7565b9250827fffffffffffffffffffffffffffffffffffffffffffffffffffffffffffffffff0382111561108d5761108c610f0b565b5b828201905092915050565b60006040820190506110ad6000830185610f6e565b6110ba6020830184610e9f565b9392505050565b60006110cc82610cf7565b91506110d783610cf7565b9250817fffffffffffffffffffffffffffffffffffffffffffffffffffffffffffffffff04831182151516156111105761110f610f0b565b5b828202905092915050565b7f4e487b7100000000000000000000000000000000000000000000000000000000600052601260045260246000fd5b600061115582610cf7565b915061116083610cf7565b9250826111705761116f61111b565b5b82820490509291505056fea26469706673582212201e24fda76567f9e93144127f1a70cc3ff51606732916a71896f21b7309fd7e3964736f6c634300080f0033",
  "immutableReferences": {},
  "source": "// SPDX-License-Identifier: agpl-3.0\r\npragma solidity ^0.8.3;\r\nimport \"./LethToken.sol\";\r\nimport \"@openzeppelin/contracts/token/ERC20/ERC20.sol\";\r\nimport \"./LendToken.sol\";\r\n\r\ncontract LendingPool {\r\n    uint stakingTimeTracker;\r\n\r\n    constructor(){\r\n        stakingTimeTracker = block.timestamp;\r\n    }\r\n\r\n    address owner = msg.sender;\r\n   \r\n    mapping(address => uint) _balances;\r\n    mapping(address => uint) _borrowAmount;\r\n    mapping(address => bool) isStaked;\r\n    mapping(address => uint) hasStakedSince;\r\n    \r\n    lEth public lETH;\r\n    address wEth = 0xc778417E063141139Fce010982780140Aa0cD5Ab; \r\n\r\n\r\n\r\n    function deposit(uint _amount, address LendETH) public payable {\r\n        _balances[msg.sender] += _amount;\r\n        isStaked[msg.sender] = true;\r\n        hasStakedSince[msg.sender] = block.timestamp;\r\n        lEth(LendETH).mint(_amount, msg.sender);\r\n        ERC20(address(wEth)).transferFrom(msg.sender, address(this), _amount);\r\n    }\r\n    \r\n\r\n    function withdraw(uint _amount, address LendETH) public payable {\r\n        // Takes the amount of lEth is in the wallet and sets it equal to _balances, leading lEth to be a tokenized form of collateral\r\n        _balances[msg.sender] = lEth(LendETH).balanceOf(msg.sender);\r\n        require(_balances[msg.sender] >= _amount);\r\n        _balances[msg.sender] -= _amount;\r\n        \r\n        if(_balances[msg.sender] == 0) {\r\n        isStaked[msg.sender] = false;\r\n        hasStakedSince[msg.sender] = 0;\r\n        }\r\n        \r\n        ERC20(wEth).transfer(msg.sender, _amount);\r\n        lEth(LendETH).redeem(msg.sender, _amount);\r\n    }\r\n\r\n\r\n    function borrow(uint _amount) public payable {\r\n        require(_amount <=  _balances[msg.sender] * 70/100);\r\n        require(_borrowAmount[msg.sender] <=  _balances[msg.sender] * 70/100);\r\n        _borrowAmount[msg.sender] += _amount;\r\n        ERC20(wEth).transfer(msg.sender, _amount);\r\n    }\r\n\r\n    function repayBorrow(uint _amount) public payable {\r\n        require(_borrowAmount[msg.sender] >= _amount);\r\n        require(_borrowAmount[msg.sender] > 0);\r\n        _borrowAmount[msg.sender] -= _amount;\r\n        ERC20(wEth).transferFrom(msg.sender, address(this), _amount);\r\n\r\n    }\r\n\r\n    function claimReward(address LendAddress) public {\r\n        require(_balances[msg.sender] > 0);\r\n        require(hasStakedSince[msg.sender] > 0);\r\n        uint rewardsOwed = (hasStakedSince[msg.sender] - block.timestamp);\r\n        rewardsOwed = rewardsOwed * 10 ** 9;\r\n        rewardsOwed = rewardsOwed + (_balances[msg.sender] * 10);\r\n\r\n        // Incentivizes users to borrow by increasing the LEND token they get    \r\n        if(_borrowAmount[msg.sender] >= _balances[msg.sender] * 50/100 ) {\r\n            rewardsOwed = rewardsOwed * 130/100;\r\n        }\r\n\r\n        // Every 4 weeks rewards emitted gets cut in half\r\n        if(block.timestamp >= stakingTimeTracker + 4 weeks) {\r\n            rewardsOwed = rewardsOwed/2;\r\n            stakingTimeTracker += 4 weeks; \r\n        } \r\n\r\n        LendToken(LendAddress).claim(rewardsOwed, msg.sender);\r\n\r\n\r\n    }\r\n}",
  "sourcePath": "C:\\Users\\godof\\Documents\\Solidity\\LEND\\contracts\\Lendingpool.sol",
  "compiler": {
    "name": "solc",
    "version": "0.8.15+commit.e14f2714.Emscripten.clang"
  },
  "schemaVersion": "3.4.8",
  "updatedAt": "2022-07-31T22:35:38.507Z",
  "networkType": "ethereum",
  "devdoc": {
    "kind": "dev",
    "methods": {},
    "version": 1
  },
  "userdoc": {
    "kind": "user",
    "methods": {},
    "version": 1
  }
}