{
  "contractName": "LendingPool",
  "abi": [
    {
      "inputs": [],
      "name": "LendEth",
      "outputs": [
        {
          "internalType": "contract lEth",
          "name": "",
          "type": "address"
        }
      ],
      "stateMutability": "view",
      "type": "function"
    },
    {
      "inputs": [
        {
          "internalType": "uint256",
          "name": "amount",
          "type": "uint256"
        }
      ],
      "name": "withdraw",
      "outputs": [],
      "stateMutability": "nonpayable",
      "type": "function"
    },
    {
      "inputs": [
        {
          "internalType": "address",
          "name": "asset",
          "type": "address"
        },
        {
          "internalType": "uint256",
          "name": "amount",
          "type": "uint256"
        },
        {
          "internalType": "address",
          "name": "onBehalfOf",
          "type": "address"
        }
      ],
      "name": "deposit",
      "outputs": [],
      "stateMutability": "payable",
      "type": "function"
    },
    {
      "inputs": [],
      "name": "borrow",
      "outputs": [],
      "stateMutability": "nonpayable",
      "type": "function"
    },
    {
      "inputs": [],
      "name": "repayBorrow",
      "outputs": [],
      "stateMutability": "nonpayable",
      "type": "function"
    }
  ],
  "bytecode": "0x608060405234801561001057600080fd5b5061050f806100206000396000f3fe60806040526004361061004a5760003560e01c80632e1a7d4d1461004f5780634bcc6ff3146100785780634e4d9fea146100a3578063e68d3569146100ba578063f45346dc146100d1575b600080fd5b34801561005b57600080fd5b506100766004803603810190610071919061029e565b6100ed565b005b34801561008457600080fd5b5061008d6100f0565b60405161009a919061034a565b60405180910390f35b3480156100af57600080fd5b506100b8610114565b005b3480156100c657600080fd5b506100cf610116565b005b6100eb60048036038101906100e691906103a3565b610118565b005b50565b60008054906101000a900473ffffffffffffffffffffffffffffffffffffffff1681565b565b565b3373ffffffffffffffffffffffffffffffffffffffff168173ffffffffffffffffffffffffffffffffffffffff161461015057600080fd5b8273ffffffffffffffffffffffffffffffffffffffff166323b872dd3330856040518463ffffffff1660e01b815260040161018d93929190610414565b6020604051808303816000875af11580156101ac573d6000803e3d6000fd5b505050506040513d601f19601f820116820180604052508101906101d09190610483565b5060008054906101000a900473ffffffffffffffffffffffffffffffffffffffff1673ffffffffffffffffffffffffffffffffffffffff1663b562ff4a83836040518363ffffffff1660e01b815260040161022c9291906104b0565b600060405180830381600087803b15801561024657600080fd5b505af115801561025a573d6000803e3d6000fd5b50505050505050565b600080fd5b6000819050919050565b61027b81610268565b811461028657600080fd5b50565b60008135905061029881610272565b92915050565b6000602082840312156102b4576102b3610263565b5b60006102c284828501610289565b91505092915050565b600073ffffffffffffffffffffffffffffffffffffffff82169050919050565b6000819050919050565b600061031061030b610306846102cb565b6102eb565b6102cb565b9050919050565b6000610322826102f5565b9050919050565b600061033482610317565b9050919050565b61034481610329565b82525050565b600060208201905061035f600083018461033b565b92915050565b6000610370826102cb565b9050919050565b61038081610365565b811461038b57600080fd5b50565b60008135905061039d81610377565b92915050565b6000806000606084860312156103bc576103bb610263565b5b60006103ca8682870161038e565b93505060206103db86828701610289565b92505060406103ec8682870161038e565b9150509250925092565b6103ff81610365565b82525050565b61040e81610268565b82525050565b600060608201905061042960008301866103f6565b61043660208301856103f6565b6104436040830184610405565b949350505050565b60008115159050919050565b6104608161044b565b811461046b57600080fd5b50565b60008151905061047d81610457565b92915050565b60006020828403121561049957610498610263565b5b60006104a78482850161046e565b91505092915050565b60006040820190506104c56000830185610405565b6104d260208301846103f6565b939250505056fea26469706673582212202df251c9a47b32c7c5e212defad2d401d47c1a42736637f84eb7453d5d5da60f64736f6c634300080f0033",
  "immutableReferences": {},
  "source": "// SPDX-License-Identifier: agpl-3.0\r\npragma solidity ^0.8.3;\r\nimport \"./LethToken.sol\";\r\nimport \"@openzeppelin/contracts/token/ERC20/IERC20.sol\";\r\n\r\n\r\ninterface InterfacelETH {\r\n    function _mint() external view returns (address, uint);\r\n\r\n}\r\n\r\ncontract LendingPool {\r\n\r\n    lEth public LendEth;\r\n\r\n    function withdraw(uint amount) public {\r\n\r\n    }\r\n    function deposit(address asset, uint amount, address onBehalfOf) public payable {\r\n        require(onBehalfOf == msg.sender);\r\n        IERC20(asset).transferFrom(msg.sender, address(this), amount);\r\n        LendEth.mintFromLendingPool(amount, onBehalfOf);\r\n        \r\n    }\r\n    function borrow() public {}\r\n    function repayBorrow() public {}\r\n}",
  "sourcePath": "C:\\Users\\godof\\Documents\\Solidity\\LEND\\contracts\\Lendingpool.sol",
  "compiler": {
    "name": "solc",
    "version": "0.8.15+commit.e14f2714.Emscripten.clang"
  },
  "schemaVersion": "3.4.8",
  "updatedAt": "2022-07-29T00:07:48.418Z",
  "devdoc": {
    "kind": "dev",
    "methods": {},
    "version": 1
  },
  "userdoc": {
    "kind": "user",
    "methods": {},
    "version": 1
  }
}