{
  "contractName": "LendingPool",
  "abi": [
    {
      "inputs": [],
      "stateMutability": "nonpayable",
      "type": "constructor"
    },
    {
      "inputs": [],
      "name": "lETH",
      "outputs": [
        {
          "internalType": "contract lEth",
          "name": "",
          "type": "address"
        }
      ],
      "stateMutability": "view",
      "type": "function",
      "constant": true
    },
    {
      "inputs": [
        {
          "internalType": "uint256",
          "name": "_amount",
          "type": "uint256"
        },
        {
          "internalType": "address",
          "name": "LendETH",
          "type": "address"
        }
      ],
      "name": "deposit",
      "outputs": [],
      "stateMutability": "payable",
      "type": "function",
      "payable": true
    },
    {
      "inputs": [
        {
          "internalType": "uint256",
          "name": "_amount",
          "type": "uint256"
        },
        {
          "internalType": "address",
          "name": "LendETH",
          "type": "address"
        }
      ],
      "name": "withdraw",
      "outputs": [],
      "stateMutability": "payable",
      "type": "function",
      "payable": true
    },
    {
      "inputs": [
        {
          "internalType": "uint256",
          "name": "_amount",
          "type": "uint256"
        }
      ],
      "name": "borrow",
      "outputs": [],
      "stateMutability": "payable",
      "type": "function",
      "payable": true
    },
    {
      "inputs": [
        {
          "internalType": "uint256",
          "name": "_amount",
          "type": "uint256"
        }
      ],
      "name": "repayBorrow",
      "outputs": [],
      "stateMutability": "payable",
      "type": "function",
      "payable": true
    },
    {
      "inputs": [
        {
          "internalType": "address",
          "name": "sender",
          "type": "address"
        }
      ],
      "name": "getBorrowAmountOfUser",
      "outputs": [
        {
          "internalType": "uint256",
          "name": "",
          "type": "uint256"
        }
      ],
      "stateMutability": "view",
      "type": "function",
      "constant": true
    },
    {
      "inputs": [
        {
          "internalType": "address",
          "name": "sender",
          "type": "address"
        }
      ],
      "name": "getDepositAmountOfUser",
      "outputs": [
        {
          "internalType": "uint256",
          "name": "",
          "type": "uint256"
        }
      ],
      "stateMutability": "view",
      "type": "function",
      "constant": true
    }
  ],
  "bytecode": "0x608060405233600160006101000a81548173ffffffffffffffffffffffffffffffffffffffff021916908373ffffffffffffffffffffffffffffffffffffffff16021790555073c778417e063141139fce010982780140aa0cd5ab600760006101000a81548173ffffffffffffffffffffffffffffffffffffffff021916908373ffffffffffffffffffffffffffffffffffffffff1602179055503480156100a657600080fd5b5042600081905550611164806100bd6000396000f3fe60806040526004361061006f5760003560e01c80632b1058401161004e5780632b105840146100e95780636e553f6514610126578063a3c9a47b14610142578063c5ebeaec1461016d5761006f565b8062f714ce146100745780630adeeba2146100905780630e752702146100cd575b600080fd5b61008e60048036038101906100899190610d23565b610189565b005b34801561009c57600080fd5b506100b760048036038101906100b29190610d63565b610535565b6040516100c49190610d9f565b60405180910390f35b6100e760048036038101906100e29190610dba565b61057e565b005b3480156100f557600080fd5b50610110600480360381019061010b9190610d63565b610768565b60405161011d9190610d9f565b60405180910390f35b610140600480360381019061013b9190610d23565b6107b1565b005b34801561014e57600080fd5b50610157610a0d565b6040516101649190610e46565b60405180910390f35b61018760048036038101906101829190610dba565b610a33565b005b8073ffffffffffffffffffffffffffffffffffffffff166370a08231336040518263ffffffff1660e01b81526004016101c29190610e70565b602060405180830381865afa1580156101df573d6000803e3d6000fd5b505050506040513d601f19601f820116820180604052508101906102039190610ea0565b600260003373ffffffffffffffffffffffffffffffffffffffff1673ffffffffffffffffffffffffffffffffffffffff1681526020019081526020016000208190555081600260003373ffffffffffffffffffffffffffffffffffffffff1673ffffffffffffffffffffffffffffffffffffffff16815260200190815260200160002054101561029257600080fd5b81600260003373ffffffffffffffffffffffffffffffffffffffff1673ffffffffffffffffffffffffffffffffffffffff16815260200190815260200160002060008282546102e19190610efc565b9250508190555081600260003073ffffffffffffffffffffffffffffffffffffffff1673ffffffffffffffffffffffffffffffffffffffff16815260200190815260200160002060008282546103379190610efc565b925050819055506000600260003373ffffffffffffffffffffffffffffffffffffffff1673ffffffffffffffffffffffffffffffffffffffff1681526020019081526020016000205403610423576000600460003373ffffffffffffffffffffffffffffffffffffffff1673ffffffffffffffffffffffffffffffffffffffff16815260200190815260200160002060006101000a81548160ff0219169083151502179055506000600560003373ffffffffffffffffffffffffffffffffffffffff1673ffffffffffffffffffffffffffffffffffffffff168152602001908152602001600020819055505b600760009054906101000a900473ffffffffffffffffffffffffffffffffffffffff1673ffffffffffffffffffffffffffffffffffffffff1663a9059cbb33846040518363ffffffff1660e01b8152600401610480929190610f30565b6020604051808303816000875af115801561049f573d6000803e3d6000fd5b505050506040513d601f19601f820116820180604052508101906104c39190610f91565b508073ffffffffffffffffffffffffffffffffffffffff16631e9a695033846040518363ffffffff1660e01b81526004016104ff929190610f30565b600060405180830381600087803b15801561051957600080fd5b505af115801561052d573d6000803e3d6000fd5b505050505050565b6000600260008373ffffffffffffffffffffffffffffffffffffffff1673ffffffffffffffffffffffffffffffffffffffff168152602001908152602001600020549050919050565b80600360003373ffffffffffffffffffffffffffffffffffffffff1673ffffffffffffffffffffffffffffffffffffffff1681526020019081526020016000205410156105ca57600080fd5b6000600360003373ffffffffffffffffffffffffffffffffffffffff1673ffffffffffffffffffffffffffffffffffffffff168152602001908152602001600020541161061657600080fd5b80600360003373ffffffffffffffffffffffffffffffffffffffff1673ffffffffffffffffffffffffffffffffffffffff16815260200190815260200160002060008282546106659190610efc565b9250508190555080600360003073ffffffffffffffffffffffffffffffffffffffff1673ffffffffffffffffffffffffffffffffffffffff16815260200190815260200160002060008282546106bb9190610efc565b92505081905550600760009054906101000a900473ffffffffffffffffffffffffffffffffffffffff1673ffffffffffffffffffffffffffffffffffffffff166323b872dd3330846040518463ffffffff1660e01b815260040161072193929190610fbe565b6020604051808303816000875af1158015610740573d6000803e3d6000fd5b505050506040513d601f19601f820116820180604052508101906107649190610f91565b5050565b6000600360008373ffffffffffffffffffffffffffffffffffffffff1673ffffffffffffffffffffffffffffffffffffffff168152602001908152602001600020549050919050565b81600260003373ffffffffffffffffffffffffffffffffffffffff1673ffffffffffffffffffffffffffffffffffffffff16815260200190815260200160002060008282546108009190610ff5565b9250508190555081600260003073ffffffffffffffffffffffffffffffffffffffff1673ffffffffffffffffffffffffffffffffffffffff16815260200190815260200160002060008282546108569190610ff5565b925050819055506001600460003373ffffffffffffffffffffffffffffffffffffffff1673ffffffffffffffffffffffffffffffffffffffff16815260200190815260200160002060006101000a81548160ff02191690831515021790555042600560003373ffffffffffffffffffffffffffffffffffffffff1673ffffffffffffffffffffffffffffffffffffffff168152602001908152602001600020819055508073ffffffffffffffffffffffffffffffffffffffff166394bf804d83336040518363ffffffff1660e01b815260040161093492919061104b565b600060405180830381600087803b15801561094e57600080fd5b505af1158015610962573d6000803e3d6000fd5b50505050600760009054906101000a900473ffffffffffffffffffffffffffffffffffffffff1673ffffffffffffffffffffffffffffffffffffffff166323b872dd3330856040518463ffffffff1660e01b81526004016109c593929190610fbe565b6020604051808303816000875af11580156109e4573d6000803e3d6000fd5b505050506040513d601f19601f82011682018060405250810190610a089190610f91565b505050565b600660009054906101000a900473ffffffffffffffffffffffffffffffffffffffff1681565b60646046600260003373ffffffffffffffffffffffffffffffffffffffff1673ffffffffffffffffffffffffffffffffffffffff16815260200190815260200160002054610a819190611074565b610a8b91906110fd565b811115610a9757600080fd5b60646046600260003373ffffffffffffffffffffffffffffffffffffffff1673ffffffffffffffffffffffffffffffffffffffff16815260200190815260200160002054610ae59190611074565b610aef91906110fd565b600360003373ffffffffffffffffffffffffffffffffffffffff1673ffffffffffffffffffffffffffffffffffffffff168152602001908152602001600020541115610b3a57600080fd5b80600360003373ffffffffffffffffffffffffffffffffffffffff1673ffffffffffffffffffffffffffffffffffffffff1681526020019081526020016000206000828254610b899190610ff5565b9250508190555080600360003073ffffffffffffffffffffffffffffffffffffffff1673ffffffffffffffffffffffffffffffffffffffff1681526020019081526020016000206000828254610bdf9190610ff5565b92505081905550600760009054906101000a900473ffffffffffffffffffffffffffffffffffffffff1673ffffffffffffffffffffffffffffffffffffffff1663a9059cbb33836040518363ffffffff1660e01b8152600401610c43929190610f30565b6020604051808303816000875af1158015610c62573d6000803e3d6000fd5b505050506040513d601f19601f82011682018060405250810190610c869190610f91565b5050565b600080fd5b6000819050919050565b610ca281610c8f565b8114610cad57600080fd5b50565b600081359050610cbf81610c99565b92915050565b600073ffffffffffffffffffffffffffffffffffffffff82169050919050565b6000610cf082610cc5565b9050919050565b610d0081610ce5565b8114610d0b57600080fd5b50565b600081359050610d1d81610cf7565b92915050565b60008060408385031215610d3a57610d39610c8a565b5b6000610d4885828601610cb0565b9250506020610d5985828601610d0e565b9150509250929050565b600060208284031215610d7957610d78610c8a565b5b6000610d8784828501610d0e565b91505092915050565b610d9981610c8f565b82525050565b6000602082019050610db46000830184610d90565b92915050565b600060208284031215610dd057610dcf610c8a565b5b6000610dde84828501610cb0565b91505092915050565b6000819050919050565b6000610e0c610e07610e0284610cc5565b610de7565b610cc5565b9050919050565b6000610e1e82610df1565b9050919050565b6000610e3082610e13565b9050919050565b610e4081610e25565b82525050565b6000602082019050610e5b6000830184610e37565b92915050565b610e6a81610ce5565b82525050565b6000602082019050610e856000830184610e61565b92915050565b600081519050610e9a81610c99565b92915050565b600060208284031215610eb657610eb5610c8a565b5b6000610ec484828501610e8b565b91505092915050565b7f4e487b7100000000000000000000000000000000000000000000000000000000600052601160045260246000fd5b6000610f0782610c8f565b9150610f1283610c8f565b925082821015610f2557610f24610ecd565b5b828203905092915050565b6000604082019050610f456000830185610e61565b610f526020830184610d90565b9392505050565b60008115159050919050565b610f6e81610f59565b8114610f7957600080fd5b50565b600081519050610f8b81610f65565b92915050565b600060208284031215610fa757610fa6610c8a565b5b6000610fb584828501610f7c565b91505092915050565b6000606082019050610fd36000830186610e61565b610fe06020830185610e61565b610fed6040830184610d90565b949350505050565b600061100082610c8f565b915061100b83610c8f565b9250827fffffffffffffffffffffffffffffffffffffffffffffffffffffffffffffffff038211156110405761103f610ecd565b5b828201905092915050565b60006040820190506110606000830185610d90565b61106d6020830184610e61565b9392505050565b600061107f82610c8f565b915061108a83610c8f565b9250817fffffffffffffffffffffffffffffffffffffffffffffffffffffffffffffffff04831182151516156110c3576110c2610ecd565b5b828202905092915050565b7f4e487b7100000000000000000000000000000000000000000000000000000000600052601260045260246000fd5b600061110882610c8f565b915061111383610c8f565b925082611123576111226110ce565b5b82820490509291505056fea2646970667358221220984556cde3f7dac2c57805d0d3c9da919dedb2fd9225572fd14dde5bb0e8879664736f6c634300080f0033",
  "immutableReferences": {},
  "source": "// SPDX-License-Identifier: agpl-3.0\r\npragma solidity ^0.8.3;\r\nimport \"./LethToken.sol\";\r\nimport \"@openzeppelin/contracts/token/ERC20/ERC20.sol\";\r\nimport \"./LendToken.sol\";\r\n\r\ncontract LendingPool {\r\n    uint stakingTimeTracker;\r\n\r\n    constructor(){\r\n        stakingTimeTracker = block.timestamp;\r\n    }\r\n\r\n    address owner = msg.sender;\r\n   \r\n    mapping(address => uint) _balances;\r\n    mapping(address => uint) _borrowAmount;\r\n    mapping(address => bool) isStaked;\r\n    mapping(address => uint) hasStakedSince;\r\n    \r\n    lEth public lETH;\r\n    address wEth = 0xc778417E063141139Fce010982780140Aa0cD5Ab; \r\n\r\n\r\n\r\n    function deposit(uint _amount, address LendETH) public payable {\r\n        _balances[msg.sender] += _amount;\r\n        _balances[address(this)] += _amount;\r\n        isStaked[msg.sender] = true;\r\n        hasStakedSince[msg.sender] = block.timestamp;\r\n        lEth(LendETH).mint(_amount, msg.sender);\r\n        ERC20(address(wEth)).transferFrom(msg.sender, address(this), _amount);\r\n    }\r\n    \r\n\r\n    function withdraw(uint _amount, address LendETH) public payable {\r\n        // Takes the amount of lEth is in the wallet and sets it equal to _balances, leading lEth to be a tokenized form of collateral\r\n        _balances[msg.sender] = lEth(LendETH).balanceOf(msg.sender);\r\n        require(_balances[msg.sender] >= _amount);\r\n        _balances[msg.sender] -= _amount;\r\n        _balances[address(this)] -= _amount;\r\n        \r\n        if(_balances[msg.sender] == 0) {\r\n        isStaked[msg.sender] = false;\r\n        hasStakedSince[msg.sender] = 0;\r\n        }\r\n        \r\n        ERC20(wEth).transfer(msg.sender, _amount);\r\n        lEth(LendETH).redeem(msg.sender, _amount);\r\n    }\r\n\r\n\r\n    function borrow(uint _amount) public payable {\r\n        require(_amount <=  _balances[msg.sender] * 70/100);\r\n        require(_borrowAmount[msg.sender] <=  _balances[msg.sender] * 70/100);\r\n        _borrowAmount[msg.sender] += _amount;\r\n        _borrowAmount[address(this)] += _amount;\r\n        ERC20(wEth).transfer(msg.sender, _amount);\r\n    }\r\n\r\n    function repayBorrow(uint _amount) public payable {\r\n        require(_borrowAmount[msg.sender] >= _amount);\r\n        require(_borrowAmount[msg.sender] > 0);\r\n        _borrowAmount[msg.sender] -= _amount;\r\n        _borrowAmount[address(this)] -= _amount;\r\n        ERC20(wEth).transferFrom(msg.sender, address(this), _amount);\r\n\r\n    }\r\n\r\n    function getBorrowAmountOfUser(address sender) public view returns(uint) {\r\n        return _borrowAmount[sender];\r\n    }\r\n\r\n    function getDepositAmountOfUser(address sender) public view returns(uint) {\r\n        return _balances[sender];\r\n    }\r\n\r\n}",
  "sourcePath": "C:\\Users\\godof\\Documents\\Solidity\\LEND\\contracts\\Lendingpool.sol",
  "compiler": {
    "name": "solc",
    "version": "0.8.15+commit.e14f2714.Emscripten.clang"
  },
  "schemaVersion": "3.4.8",
  "updatedAt": "2022-08-02T00:00:17.873Z",
  "networkType": "ethereum",
  "devdoc": {
    "kind": "dev",
    "methods": {},
    "version": 1
  },
  "userdoc": {
    "kind": "user",
    "methods": {},
    "version": 1
  }
}