{
  "contractName": "LendingPool",
  "abi": [
    {
      "inputs": [],
      "stateMutability": "nonpayable",
      "type": "constructor"
    },
    {
      "inputs": [],
      "name": "lETH",
      "outputs": [
        {
          "internalType": "contract lEth",
          "name": "",
          "type": "address"
        }
      ],
      "stateMutability": "view",
      "type": "function",
      "constant": true
    },
    {
      "inputs": [
        {
          "internalType": "uint256",
          "name": "_amount",
          "type": "uint256"
        },
        {
          "internalType": "address",
          "name": "LendETH",
          "type": "address"
        }
      ],
      "name": "deposit",
      "outputs": [],
      "stateMutability": "payable",
      "type": "function",
      "payable": true
    },
    {
      "inputs": [
        {
          "internalType": "uint256",
          "name": "_amount",
          "type": "uint256"
        },
        {
          "internalType": "address",
          "name": "LendETH",
          "type": "address"
        }
      ],
      "name": "withdraw",
      "outputs": [],
      "stateMutability": "payable",
      "type": "function",
      "payable": true
    },
    {
      "inputs": [
        {
          "internalType": "uint256",
          "name": "_amount",
          "type": "uint256"
        }
      ],
      "name": "borrow",
      "outputs": [],
      "stateMutability": "payable",
      "type": "function",
      "payable": true
    },
    {
      "inputs": [
        {
          "internalType": "uint256",
          "name": "_amount",
          "type": "uint256"
        }
      ],
      "name": "repayBorrow",
      "outputs": [],
      "stateMutability": "payable",
      "type": "function",
      "payable": true
    },
    {
      "inputs": [
        {
          "internalType": "address",
          "name": "sender",
          "type": "address"
        }
      ],
      "name": "getBorrowAmountOfUser",
      "outputs": [
        {
          "internalType": "uint256",
          "name": "",
          "type": "uint256"
        }
      ],
      "stateMutability": "view",
      "type": "function",
      "constant": true
    },
    {
      "inputs": [
        {
          "internalType": "address",
          "name": "sender",
          "type": "address"
        }
      ],
      "name": "getDepositAmountOfUser",
      "outputs": [
        {
          "internalType": "uint256",
          "name": "",
          "type": "uint256"
        }
      ],
      "stateMutability": "view",
      "type": "function",
      "constant": true
    }
  ],
  "bytecode": "0x608060405233600160006101000a81548173ffffffffffffffffffffffffffffffffffffffff021916908373ffffffffffffffffffffffffffffffffffffffff16021790555073c778417e063141139fce010982780140aa0cd5ab600760006101000a81548173ffffffffffffffffffffffffffffffffffffffff021916908373ffffffffffffffffffffffffffffffffffffffff1602179055503480156100a657600080fd5b5042600081905550611211806100bd6000396000f3fe60806040526004361061006f5760003560e01c80632b1058401161004e5780632b105840146100e95780636e553f6514610126578063a3c9a47b14610142578063c5ebeaec1461016d5761006f565b8062f714ce146100745780630adeeba2146100905780630e752702146100cd575b600080fd5b61008e60048036038101906100899190610dd0565b610189565b005b34801561009c57600080fd5b506100b760048036038101906100b29190610e10565b6105e2565b6040516100c49190610e4c565b60405180910390f35b6100e760048036038101906100e29190610e67565b61062b565b005b3480156100f557600080fd5b50610110600480360381019061010b9190610e10565b610815565b60405161011d9190610e4c565b60405180910390f35b610140600480360381019061013b9190610dd0565b61085e565b005b34801561014e57600080fd5b50610157610aba565b6040516101649190610ef3565b60405180910390f35b61018760048036038101906101829190610e67565b610ae0565b005b6064604683600260003373ffffffffffffffffffffffffffffffffffffffff1673ffffffffffffffffffffffffffffffffffffffff168152602001908152602001600020546101d89190610f3d565b6101e29190610f71565b6101ec9190610ffa565b600360003373ffffffffffffffffffffffffffffffffffffffff1673ffffffffffffffffffffffffffffffffffffffff168152602001908152602001600020541061023657600080fd5b8073ffffffffffffffffffffffffffffffffffffffff166370a08231336040518263ffffffff1660e01b815260040161026f919061103a565b602060405180830381865afa15801561028c573d6000803e3d6000fd5b505050506040513d601f19601f820116820180604052508101906102b0919061106a565b600260003373ffffffffffffffffffffffffffffffffffffffff1673ffffffffffffffffffffffffffffffffffffffff1681526020019081526020016000208190555081600260003373ffffffffffffffffffffffffffffffffffffffff1673ffffffffffffffffffffffffffffffffffffffff16815260200190815260200160002054101561033f57600080fd5b81600260003373ffffffffffffffffffffffffffffffffffffffff1673ffffffffffffffffffffffffffffffffffffffff168152602001908152602001600020600082825461038e9190610f3d565b9250508190555081600260003073ffffffffffffffffffffffffffffffffffffffff1673ffffffffffffffffffffffffffffffffffffffff16815260200190815260200160002060008282546103e49190610f3d565b925050819055506000600260003373ffffffffffffffffffffffffffffffffffffffff1673ffffffffffffffffffffffffffffffffffffffff16815260200190815260200160002054036104d0576000600460003373ffffffffffffffffffffffffffffffffffffffff1673ffffffffffffffffffffffffffffffffffffffff16815260200190815260200160002060006101000a81548160ff0219169083151502179055506000600560003373ffffffffffffffffffffffffffffffffffffffff1673ffffffffffffffffffffffffffffffffffffffff168152602001908152602001600020819055505b600760009054906101000a900473ffffffffffffffffffffffffffffffffffffffff1673ffffffffffffffffffffffffffffffffffffffff1663a9059cbb33846040518363ffffffff1660e01b815260040161052d929190611097565b6020604051808303816000875af115801561054c573d6000803e3d6000fd5b505050506040513d601f19601f8201168201806040525081019061057091906110f8565b508073ffffffffffffffffffffffffffffffffffffffff16631e9a695033846040518363ffffffff1660e01b81526004016105ac929190611097565b600060405180830381600087803b1580156105c657600080fd5b505af11580156105da573d6000803e3d6000fd5b505050505050565b6000600260008373ffffffffffffffffffffffffffffffffffffffff1673ffffffffffffffffffffffffffffffffffffffff168152602001908152602001600020549050919050565b80600360003373ffffffffffffffffffffffffffffffffffffffff1673ffffffffffffffffffffffffffffffffffffffff16815260200190815260200160002054101561067757600080fd5b6000600360003373ffffffffffffffffffffffffffffffffffffffff1673ffffffffffffffffffffffffffffffffffffffff16815260200190815260200160002054116106c357600080fd5b80600360003373ffffffffffffffffffffffffffffffffffffffff1673ffffffffffffffffffffffffffffffffffffffff16815260200190815260200160002060008282546107129190610f3d565b9250508190555080600360003073ffffffffffffffffffffffffffffffffffffffff1673ffffffffffffffffffffffffffffffffffffffff16815260200190815260200160002060008282546107689190610f3d565b92505081905550600760009054906101000a900473ffffffffffffffffffffffffffffffffffffffff1673ffffffffffffffffffffffffffffffffffffffff166323b872dd3330846040518463ffffffff1660e01b81526004016107ce93929190611125565b6020604051808303816000875af11580156107ed573d6000803e3d6000fd5b505050506040513d601f19601f8201168201806040525081019061081191906110f8565b5050565b6000600360008373ffffffffffffffffffffffffffffffffffffffff1673ffffffffffffffffffffffffffffffffffffffff168152602001908152602001600020549050919050565b81600260003373ffffffffffffffffffffffffffffffffffffffff1673ffffffffffffffffffffffffffffffffffffffff16815260200190815260200160002060008282546108ad919061115c565b9250508190555081600260003073ffffffffffffffffffffffffffffffffffffffff1673ffffffffffffffffffffffffffffffffffffffff1681526020019081526020016000206000828254610903919061115c565b925050819055506001600460003373ffffffffffffffffffffffffffffffffffffffff1673ffffffffffffffffffffffffffffffffffffffff16815260200190815260200160002060006101000a81548160ff02191690831515021790555042600560003373ffffffffffffffffffffffffffffffffffffffff1673ffffffffffffffffffffffffffffffffffffffff168152602001908152602001600020819055508073ffffffffffffffffffffffffffffffffffffffff166394bf804d83336040518363ffffffff1660e01b81526004016109e19291906111b2565b600060405180830381600087803b1580156109fb57600080fd5b505af1158015610a0f573d6000803e3d6000fd5b50505050600760009054906101000a900473ffffffffffffffffffffffffffffffffffffffff1673ffffffffffffffffffffffffffffffffffffffff166323b872dd3330856040518463ffffffff1660e01b8152600401610a7293929190611125565b6020604051808303816000875af1158015610a91573d6000803e3d6000fd5b505050506040513d601f19601f82011682018060405250810190610ab591906110f8565b505050565b600660009054906101000a900473ffffffffffffffffffffffffffffffffffffffff1681565b60646046600260003373ffffffffffffffffffffffffffffffffffffffff1673ffffffffffffffffffffffffffffffffffffffff16815260200190815260200160002054610b2e9190610f71565b610b389190610ffa565b811115610b4457600080fd5b60646046600260003373ffffffffffffffffffffffffffffffffffffffff1673ffffffffffffffffffffffffffffffffffffffff16815260200190815260200160002054610b929190610f71565b610b9c9190610ffa565b600360003373ffffffffffffffffffffffffffffffffffffffff1673ffffffffffffffffffffffffffffffffffffffff168152602001908152602001600020541115610be757600080fd5b80600360003373ffffffffffffffffffffffffffffffffffffffff1673ffffffffffffffffffffffffffffffffffffffff1681526020019081526020016000206000828254610c36919061115c565b9250508190555080600360003073ffffffffffffffffffffffffffffffffffffffff1673ffffffffffffffffffffffffffffffffffffffff1681526020019081526020016000206000828254610c8c919061115c565b92505081905550600760009054906101000a900473ffffffffffffffffffffffffffffffffffffffff1673ffffffffffffffffffffffffffffffffffffffff1663a9059cbb33836040518363ffffffff1660e01b8152600401610cf0929190611097565b6020604051808303816000875af1158015610d0f573d6000803e3d6000fd5b505050506040513d601f19601f82011682018060405250810190610d3391906110f8565b5050565b600080fd5b6000819050919050565b610d4f81610d3c565b8114610d5a57600080fd5b50565b600081359050610d6c81610d46565b92915050565b600073ffffffffffffffffffffffffffffffffffffffff82169050919050565b6000610d9d82610d72565b9050919050565b610dad81610d92565b8114610db857600080fd5b50565b600081359050610dca81610da4565b92915050565b60008060408385031215610de757610de6610d37565b5b6000610df585828601610d5d565b9250506020610e0685828601610dbb565b9150509250929050565b600060208284031215610e2657610e25610d37565b5b6000610e3484828501610dbb565b91505092915050565b610e4681610d3c565b82525050565b6000602082019050610e616000830184610e3d565b92915050565b600060208284031215610e7d57610e7c610d37565b5b6000610e8b84828501610d5d565b91505092915050565b6000819050919050565b6000610eb9610eb4610eaf84610d72565b610e94565b610d72565b9050919050565b6000610ecb82610e9e565b9050919050565b6000610edd82610ec0565b9050919050565b610eed81610ed2565b82525050565b6000602082019050610f086000830184610ee4565b92915050565b7f4e487b7100000000000000000000000000000000000000000000000000000000600052601160045260246000fd5b6000610f4882610d3c565b9150610f5383610d3c565b925082821015610f6657610f65610f0e565b5b828203905092915050565b6000610f7c82610d3c565b9150610f8783610d3c565b9250817fffffffffffffffffffffffffffffffffffffffffffffffffffffffffffffffff0483118215151615610fc057610fbf610f0e565b5b828202905092915050565b7f4e487b7100000000000000000000000000000000000000000000000000000000600052601260045260246000fd5b600061100582610d3c565b915061101083610d3c565b9250826110205761101f610fcb565b5b828204905092915050565b61103481610d92565b82525050565b600060208201905061104f600083018461102b565b92915050565b60008151905061106481610d46565b92915050565b6000602082840312156110805761107f610d37565b5b600061108e84828501611055565b91505092915050565b60006040820190506110ac600083018561102b565b6110b96020830184610e3d565b9392505050565b60008115159050919050565b6110d5816110c0565b81146110e057600080fd5b50565b6000815190506110f2816110cc565b92915050565b60006020828403121561110e5761110d610d37565b5b600061111c848285016110e3565b91505092915050565b600060608201905061113a600083018661102b565b611147602083018561102b565b6111546040830184610e3d565b949350505050565b600061116782610d3c565b915061117283610d3c565b9250827fffffffffffffffffffffffffffffffffffffffffffffffffffffffffffffffff038211156111a7576111a6610f0e565b5b828201905092915050565b60006040820190506111c76000830185610e3d565b6111d4602083018461102b565b939250505056fea2646970667358221220b851d05f59bf25236aa90f2a51bb155282b8929fe83b00827dd5b84a4e7a8bff64736f6c634300080f0033",
  "immutableReferences": {},
  "source": "// SPDX-License-Identifier: agpl-3.0\r\npragma solidity ^0.8.3;\r\nimport \"./LethToken.sol\";\r\nimport \"@openzeppelin/contracts/token/ERC20/ERC20.sol\";\r\nimport \"./LendToken.sol\";\r\n\r\ncontract LendingPool {\r\n    uint stakingTimeTracker;\r\n\r\n    constructor(){\r\n        stakingTimeTracker = block.timestamp;\r\n    }\r\n\r\n    address owner = msg.sender;\r\n   \r\n    mapping(address => uint) _balances;\r\n    mapping(address => uint) _borrowAmount;\r\n    mapping(address => bool) isStaked;\r\n    mapping(address => uint) hasStakedSince;\r\n    \r\n    lEth public lETH;\r\n    address wEth = 0xc778417E063141139Fce010982780140Aa0cD5Ab; \r\n\r\n\r\n\r\n    function deposit(uint _amount, address LendETH) public payable {\r\n        _balances[msg.sender] += _amount;\r\n        _balances[address(this)] += _amount;\r\n        isStaked[msg.sender] = true;\r\n        hasStakedSince[msg.sender] = block.timestamp;\r\n        lEth(LendETH).mint(_amount, msg.sender);\r\n        ERC20(address(wEth)).transferFrom(msg.sender, address(this), _amount);\r\n    }\r\n    \r\n\r\n    function withdraw(uint _amount, address LendETH) public payable {\r\n        // Takes the amount of lEth is in the wallet and sets it equal to _balances, leading lEth to be a tokenized form of collateral\r\n        require(_borrowAmount[msg.sender] < (_balances[msg.sender] - _amount) * 70/100);\r\n        _balances[msg.sender] = lEth(LendETH).balanceOf(msg.sender);\r\n        \r\n        require(_balances[msg.sender] >= _amount);\r\n        _balances[msg.sender] -= _amount;\r\n        _balances[address(this)] -= _amount;\r\n        \r\n        if(_balances[msg.sender] == 0) {\r\n        isStaked[msg.sender] = false;\r\n        hasStakedSince[msg.sender] = 0;\r\n        }\r\n        \r\n        ERC20(wEth).transfer(msg.sender, _amount);\r\n        lEth(LendETH).redeem(msg.sender, _amount);\r\n    }\r\n\r\n\r\n    function borrow(uint _amount) public payable {\r\n        require(_amount <=  _balances[msg.sender] * 70/100);\r\n        require(_borrowAmount[msg.sender] <=  _balances[msg.sender] * 70/100);\r\n        _borrowAmount[msg.sender] += _amount;\r\n        _borrowAmount[address(this)] += _amount;\r\n        ERC20(wEth).transfer(msg.sender, _amount);\r\n    }\r\n\r\n    function repayBorrow(uint _amount) public payable {\r\n        require(_borrowAmount[msg.sender] >= _amount);\r\n        require(_borrowAmount[msg.sender] > 0);\r\n        _borrowAmount[msg.sender] -= _amount;\r\n        _borrowAmount[address(this)] -= _amount;\r\n        ERC20(wEth).transferFrom(msg.sender, address(this), _amount);\r\n\r\n    }\r\n\r\n    function getBorrowAmountOfUser(address sender) public view returns(uint) {\r\n        return _borrowAmount[sender];\r\n    }\r\n\r\n    function getDepositAmountOfUser(address sender) public view returns(uint) {\r\n        return _balances[sender];\r\n    }\r\n\r\n}",
  "sourcePath": "C:\\Users\\godof\\Documents\\Solidity\\LEND\\contracts\\Lendingpool.sol",
  "compiler": {
    "name": "solc",
    "version": "0.8.15+commit.e14f2714.Emscripten.clang"
  },
  "schemaVersion": "3.4.8",
  "updatedAt": "2022-08-02T21:18:14.042Z",
  "networkType": "ethereum",
  "devdoc": {
    "kind": "dev",
    "methods": {},
    "version": 1
  },
  "userdoc": {
    "kind": "user",
    "methods": {},
    "version": 1
  }
}