{
  "contractName": "LendingPool",
  "abi": [
    {
      "inputs": [],
      "name": "LendEth",
      "outputs": [
        {
          "internalType": "contract lEth",
          "name": "",
          "type": "address"
        }
      ],
      "stateMutability": "view",
      "type": "function"
    },
    {
      "inputs": [
        {
          "internalType": "address",
          "name": "asset",
          "type": "address"
        },
        {
          "internalType": "uint256",
          "name": "amount",
          "type": "uint256"
        },
        {
          "internalType": "address",
          "name": "onBehalfOf",
          "type": "address"
        }
      ],
      "name": "withdraw",
      "outputs": [],
      "stateMutability": "nonpayable",
      "type": "function"
    },
    {
      "inputs": [
        {
          "internalType": "address",
          "name": "asset",
          "type": "address"
        },
        {
          "internalType": "uint256",
          "name": "amount",
          "type": "uint256"
        },
        {
          "internalType": "address",
          "name": "onBehalfOf",
          "type": "address"
        }
      ],
      "name": "deposit",
      "outputs": [],
      "stateMutability": "nonpayable",
      "type": "function"
    },
    {
      "inputs": [],
      "name": "borrow",
      "outputs": [],
      "stateMutability": "nonpayable",
      "type": "function"
    },
    {
      "inputs": [],
      "name": "repayBorrow",
      "outputs": [],
      "stateMutability": "nonpayable",
      "type": "function"
    }
  ],
  "bytecode": "0x608060405234801561001057600080fd5b5061062c806100206000396000f3fe608060405234801561001057600080fd5b50600436106100575760003560e01c80634bcc6ff31461005c5780634e4d9fea1461007a57806369328dec14610084578063e68d3569146100a0578063f45346dc146100aa575b600080fd5b6100646100c6565b6040516100719190610403565b60405180910390f35b6100826100ea565b005b61009e60048036038101906100999190610497565b6100ec565b005b6100a8610237565b005b6100c460048036038101906100bf9190610497565b610239565b005b60008054906101000a900473ffffffffffffffffffffffffffffffffffffffff1681565b565b3373ffffffffffffffffffffffffffffffffffffffff168173ffffffffffffffffffffffffffffffffffffffff161461012457600080fd5b60008054906101000a900473ffffffffffffffffffffffffffffffffffffffff1673ffffffffffffffffffffffffffffffffffffffff1663d3145bed82846040518363ffffffff1660e01b815260040161017f929190610508565b600060405180830381600087803b15801561019957600080fd5b505af11580156101ad573d6000803e3d6000fd5b505050508273ffffffffffffffffffffffffffffffffffffffff166323b872dd3083856040518463ffffffff1660e01b81526004016101ee93929190610531565b6020604051808303816000875af115801561020d573d6000803e3d6000fd5b505050506040513d601f19601f8201168201806040525081019061023191906105a0565b50505050565b565b3373ffffffffffffffffffffffffffffffffffffffff168173ffffffffffffffffffffffffffffffffffffffff161461027157600080fd5b8273ffffffffffffffffffffffffffffffffffffffff166323b872dd3330856040518463ffffffff1660e01b81526004016102ae93929190610531565b6020604051808303816000875af11580156102cd573d6000803e3d6000fd5b505050506040513d601f19601f820116820180604052508101906102f191906105a0565b5060008054906101000a900473ffffffffffffffffffffffffffffffffffffffff1673ffffffffffffffffffffffffffffffffffffffff1663b562ff4a83836040518363ffffffff1660e01b815260040161034d9291906105cd565b600060405180830381600087803b15801561036757600080fd5b505af115801561037b573d6000803e3d6000fd5b50505050505050565b600073ffffffffffffffffffffffffffffffffffffffff82169050919050565b6000819050919050565b60006103c96103c46103bf84610384565b6103a4565b610384565b9050919050565b60006103db826103ae565b9050919050565b60006103ed826103d0565b9050919050565b6103fd816103e2565b82525050565b600060208201905061041860008301846103f4565b92915050565b600080fd5b600061042e82610384565b9050919050565b61043e81610423565b811461044957600080fd5b50565b60008135905061045b81610435565b92915050565b6000819050919050565b61047481610461565b811461047f57600080fd5b50565b6000813590506104918161046b565b92915050565b6000806000606084860312156104b0576104af61041e565b5b60006104be8682870161044c565b93505060206104cf86828701610482565b92505060406104e08682870161044c565b9150509250925092565b6104f381610423565b82525050565b61050281610461565b82525050565b600060408201905061051d60008301856104ea565b61052a60208301846104f9565b9392505050565b600060608201905061054660008301866104ea565b61055360208301856104ea565b61056060408301846104f9565b949350505050565b60008115159050919050565b61057d81610568565b811461058857600080fd5b50565b60008151905061059a81610574565b92915050565b6000602082840312156105b6576105b561041e565b5b60006105c48482850161058b565b91505092915050565b60006040820190506105e260008301856104f9565b6105ef60208301846104ea565b939250505056fea2646970667358221220f777da391d81e7e1eb45f19e141046a24714f77dd84bfd104f190bd6f66279f664736f6c634300080f0033",
  "immutableReferences": {},
  "source": "// SPDX-License-Identifier: agpl-3.0\r\npragma solidity ^0.8.3;\r\nimport \"./LethToken.sol\";\r\nimport \"@openzeppelin/contracts/token/ERC20/IERC20.sol\";\r\n\r\n\r\ninterface InterfacelETH {\r\n    function _mint() external view returns (address, uint);\r\n\r\n}\r\n\r\ncontract LendingPool {\r\n\r\n    lEth public LendEth;\r\n\r\n    function withdraw(address asset, uint amount, address onBehalfOf) public {\r\n        require(onBehalfOf == msg.sender);\r\n        LendEth.redeemFromLendingPool(onBehalfOf, amount);\r\n        IERC20(asset).transferFrom(address(this), onBehalfOf, amount);\r\n    }\r\n    \r\n    function deposit(address asset, uint amount, address onBehalfOf) public {\r\n        require(onBehalfOf == msg.sender);\r\n        IERC20(asset).transferFrom(msg.sender, address(this), amount);\r\n        LendEth.mintFromLendingPool(amount, onBehalfOf);\r\n        \r\n    }\r\n    function borrow() public {}\r\n    function repayBorrow() public {}\r\n}",
  "sourcePath": "C:\\Users\\godof\\Documents\\Solidity\\LEND\\contracts\\Lendingpool.sol",
  "compiler": {
    "name": "solc",
    "version": "0.8.15+commit.e14f2714.Emscripten.clang"
  },
  "schemaVersion": "3.4.8",
  "updatedAt": "2022-07-29T11:24:29.099Z",
  "devdoc": {
    "kind": "dev",
    "methods": {},
    "version": 1
  },
  "userdoc": {
    "kind": "user",
    "methods": {},
    "version": 1
  }
}